S012000044494F5F4472697665722E737265636B
S11300000C942A000C9434000C9434000C943400A6
S11300100C9434000C9434000C9434000C9434008C
S11300200C9434000C9434000C9434000C9434007C
S11300300C9434000C9434000C9434000C9434006C
S11300400C9434000C9434000C9434000C9434005C
S11300500C94340011241FBECFE5D8E0DEBFCDBF21
S11300600E9405030C943F030C940000613039F1A5
S113007038F0623009F442C0633009F45EC0089578
S1130080413069F44AB321E030E0B90102C0660F9F
S1130090771F8A95E2F7CB01842B8ABB089541111F
S11300A06AC04AB321E030E0B90102C0660F771F8D
S11300B08A95E2F7CB01809584238ABB0895413069
S11300C069F447B321E030E0B90102C0660F771F3D
S11300D08A95E2F7CB01842B87BB089541114BC06D
S11300E047B321E030E0B90102C0660F771F8A955B
S11300F0E2F7CB018095842387BB0895413069F4EE
S113010044B321E030E0B90102C0660F771F8A953D
S1130110E2F7CB01842B84BB089541112CC044B376
S113012021E030E0B90102C0660F771F8A95E2F73B
S1130130CB018095842384BB0895413069F441B395
S113014021E030E0B90102C0660F771F8A95E2F71B
S1130150CB01842B81BB089541110DC041B321E033
S113016030E0B90102C0660F771F8A95E2F7CB0130
S11301708095842381BB0895613039F138F0623071
S113018009F442C0633009F45EC00895413069F453
S11301904BB321E030E0B90102C0660F771F8A95A6
S11301A0E2F7CB01842B8BBB089541116AC04BB39A
S11301B021E030E0B90102C0660F771F8A95E2F7AB
S11301C0CB01809584238BBB0895413069F448B3F7
S11301D021E030E0B90102C0660F771F8A95E2F78B
S11301E0CB01842B88BB089541114BC048B321E057
S11301F030E0B90102C0660F771F8A95E2F7CB01A0
S11302008095842388BB0895413069F445B321E087
S113021030E0B90102C0660F771F8A95E2F7CB017F
S1130220842B85BB089541112CC045B321E030E0F7
S1130230B90102C0660F771F8A95E2F7CB0180955A
S1130240842385BB0895413069F442B321E030E052
S1130250B90102C0660F771F8A95E2F7CB01842BA0
S113026082BB089541110DC042B321E030E0B901D1
S113027002C0660F771F8A95E2F7CB01809584232D
S113028082BB08958130B9F138F0823009F462C03C
S1130290833009F48EC008956130A9F40EC04AB3C6
S11302A081E090E0022E02C0880F991F0A94E2F7C1
S11302B0842B8ABB2F5F3F4F02C020E030E0283000
S11302C0310568F30895662381F008954AB381E007
S11302D090E0022E02C0880F991F0A94E2F78095DD
S11302E084238ABB2F5F3F4F02C020E030E02830D8
S11302F0310560F308956130A9F40EC047B381E07D
S113030090E0022E02C0880F991F0A94E2F7842B12
S113031087BB2F5F3F4F02C020E030E0283031051B
S113032068F30895662381F0089547B381E090E06F
S1130330022E02C0880F991F0A94E2F78095842345
S113034087BB2F5F3F4F02C020E030E028303105EB
S113035060F308956130A9F40EC044B381E090E0E5
S1130360022E02C0880F991F0A94E2F7842B84BBE3
S11303702F5F3F4F02C020E030E02830310568F3A2
S11303800895662381F0089544B381E090E0022E3D
S113039002C0880F991F0A94E2F78095842384BBD6
S11303A02F5F3F4F02C020E030E02830310560F37A
S11303B008956130A9F40EC041B381E090E0022EAB
S11303C002C0880F991F0A94E2F7842B81BB2F5F28
S11303D03F4F02C020E030E02830310568F3089533
S11303E0662381F0089541B381E090E0022E02C0BB
S11303F0880F991F0A94E2F78095842381BB2F5FAD
S11304003F4F02C020E030E02830310560F308950A
S11304108130B9F138F0823009F462C0833009F4D4
S11304208EC008956130A9F40EC04BB381E090E012
S1130430022E02C0880F991F0A94E2F7842B8BBB0B
S11304402F5F3F4F02C020E030E02830310568F3D1
S11304500895662381F008954BB381E090E0022E65
S113046002C0880F991F0A94E2F7809584238BBBFE
S11304702F5F3F4F02C020E030E02830310560F3A9
S113048008956130A9F40EC048B381E090E0022ED3
S113049002C0880F991F0A94E2F7842B88BB2F5F50
S11304A03F4F02C020E030E02830310568F3089562
S11304B0662381F0089548B381E090E0022E02C0E3
S11304C0880F991F0A94E2F78095842388BB2F5FD5
S11304D03F4F02C020E030E02830310560F308953A
S11304E06130A9F40EC045B381E090E0022E02C051
S11304F0880F991F0A94E2F7842B85BB2F5F3F4F27
S113050002C020E030E02830310568F30895662306
S113051081F0089545B381E090E0022E02C0880F77
S1130520991F0A94E2F78095842385BB2F5F3F4F80
S113053002C020E030E02830310560F308956130D6
S1130540A9F40EC042B381E090E0022E02C0880FED
S1130550991F0A94E2F7842B82BB2F5F3F4F02C09E
S113056020E030E02830310568F30895662381F0F7
S1130570089542B381E090E0022E02C0880F991FD3
S11305800A94E2F78095842382BB2F5F3F4F02C019
S113059020E030E02830310560F30895613089F0BF
S11305A028F06230C9F0633011F12CC029B330E077
S11305B0A90102C0559547958A95E2F7CA01817051
S11305C022C026B330E0A90102C0559547958A950B
S11305D0E2F7CA01817017C023B330E0A90102C059
S11305E0559547958A95E2F7CA0181700CC020B3EE
S11305F030E0A90102C0559547958A95E2F7CA01F2
S1130600817001C082E08170089541E063E080E080
S11306100E94360040E060E084E00E94360041E041
S113062060E084E00E94BC0061E082E00E9442013C
S113063061E082E00E94080260E084E00E94CE0251
S113064080FDFACF41E063E080E00E94BC002FE926
S113065086E891E0215080409040E1F700C000001E
S113066040E063E080E00E94BC002FE986E891E06E
S1130670215080409040E1F700C00000DDCFF894A5
S1050680FFCFA6
S9030000FC
